:020000040000FA
:020000000B28CB
:040002000034003492
:080008002100911E0A282000CE
:10001000911A7422090021007230990021232300D3
:100020009D0123009E012400950127009C012500CD
:100030009301220091012200930120009C012100E4
:100040009D0123008C018E010E15F10122008E010D
:100050000E168C010C168C1421008E010E158E16B6
:1000600000308C000C158C1524008E0124008C01AE
:100070008B0142221C2218232000B6016400711853
:1000800042203E2864007110F1117808303E84004F
:100090001200F6001200F7007608F2027708F33B30
:1000A00003185528F209F309F115F336F20CF3366B
:1000B000F20CF336F20CF336F20CF11964287208E4
:1000C000F6077308F73D68287208F6027308F73BD5
:1000D0007808303E840076081A00F40077081A0089
:1000E000F50020001608F20020001708F30071192F
:1000F0007C2864001622A928F11072087402FA0004
:100100007308753BFB0003188C28FA09FB090130C2
:10011000FA070030FB3DF11420007A08A0007B08AC
:10012000A100A201E830A3000330A400BE222808E9
:10013000A0002908A1002A08A2007408A5007508DB
:10014000A600A701D6222808FA002908FB006400AF
:10015000B920F80AF80A7808013C03180800F801E9
:10016000F90803190800F90B0800711522008C101A
:100170000800FB08031DCB2803307A02031CCB28A0
:1001800020007A08B700CD207808303E840072083D
:100190001A0073081A0016220800F118D128D3207B
:1001A0000800D820080020003613B615DD2008000E
:1001B00020003613B611DD20080022008C148322A3
:1001C000DD213121FB30CF2120000430B8009821FF
:1001D0006D220D21FA30CF2120000530B800982182
:1001E0006D2223009E1222008C1018230F2304225C
:1001F00008002000B501523062212C3062213130DC
:1002000062210D3062210A306221603084001200C8
:1002100070210A3A031D072908002000B50141306A
:1002200062212C3062213030622130306221333043
:100230006221323062212C30622130306221313033
:10024000622133306221363062210D3062210A3062
:10025000622160308400120070210A3A031D2B29AC
:10026000080064002000B5014E3062212C3062216C
:1002700035306221333062212000360858212000B9
:100280003708582120002F08582120002E08582117
:1002900034306221353062210D3062210A30622112
:1002A00060308400120070210A3A031D52290800B0
:1002B000F700770E0F393F23622177080F393F236C
:1002C00062210800F60020003508603E84007608B0
:1002D0008000B50A35080F3C03180800B501080076
:1002E000F60023009E16640020000C197429640097
:1002F00023009E1C7829230076089A0008004530C8
:10030000F6000030CA21031D00344E30F6000130E3
:10031000CA21031D00344430F6000230CA21031DF7
:1003200000340D30F6000330CA21031D00340134BF
:100330004130F6000030CA21031D00344F30F60072
:100340000130CA21031D00344B30F6000230CA21AF
:10035000031D00340D30F6000330CA21031D0034A4
:1003600001344330F6000030CA21031D00344D3003
:10037000F6000130CA21031D00344430F60002307B
:10038000CA21031D00340D30F6000330CA21031DBD
:1003900000340134503E8400000876060800200036
:1003A000B800640022000C127D080A3A031DD4290B
:1003B00022000C16FD01FC010800230040309B00C8
:1003C000230003309C00230006309E0023004830A9
:1003D0009F00230000309D00FC01FD0120009112D0
:1003E00021009116C0308B0023009D171D1622009E
:1003F0008C16352322008E15F930CF2120000630CF
:10040000B800B1216D22080022008E11FF30CF21EB
:1004100020000730B8007F216D2222008C12FD01E0
:10042000FC0123009E1223009D13080006302000CB
:100430009F002000CC309E002000960120009701F4
:1004400020001814352320009E132B2320009E1714
:10045000352320009E132B2320009E1735232000D8
:100460009E132B2320009E173523200018102000F8
:100470001608F20020001708F30020009E137114E4
:100480002B2308000130F8003030840000301A00BF
:100490001A00F80B462AF401F501F201F301683065
:1004A000F9002100203095002000C5309800200080
:1004B000990120009601200097012200C930970081
:1004C0002200883098002200013099002000CC30B2
:1004D0009E00200006309F000800003A031D712A8C
:1004E00001002000B801080091127C08503E8400F1
:1004F000230019088000FD00FC0A7C080F3C03184B
:060500000800FC010800E8
:0A0506002100F0309E007D3021003E
:100510009D0000000000000000000000000000003E
:1005200000000000000000000000000000000000CB
:1005300000000000000000000000000000000000BB
:100540000000000021009D149D18A42A1C08200012
:10055000AF0021001B082000AE0021001D10080084
:100560002008A8072108A93D2208AA3D080025085F
:10057000A0072608A13D2708A23D0800A801A9015F
:10058000AA012318B022A436A30CA035A10DA20DF8
:10059000A308031DC12AA408031DC12A08002508B9
:1005A000A0022608A13B2708A23B0800A508031DBE
:1005B000DF2AA608031DDF2AA70803190800013057
:1005C000AB00AC01AD01A801A901AA01A71BEF2A4C
:1005D000AB35AC0DAD0DA535A60DA70DE62ACF2286
:1005E0000318F42AB722FA2A2B08A8072C08A93DD9
:1005F0002D08AA3DA736A60CA50CAD36AC0CAB0C4D
:10060000031CEF2A08002100970008006400133043
:100610000323630000006400153003230800640016
:100620000F3003236300000064001530032308002B
:1006300064001130032363000000640015300323BD
:10064000080064000D300323000063000000640014
:1006500015300323080064000B30032300006300FF
:1006600000006400153003230800640009300323F0
:1006700000006300000064001530032308000B0035
:10068000303431343234333434343534363437342E
:1006900038343934413442344334443445344634B4
:020000040001F9
:02000E004C089C
:02001000FC1ED4
:04E00000000000001C
:00000001FF
